{
  "_format": "hh-sol-artifact-1",
  "contractName": "AutonomixDPoS",
  "sourceName": "contracts/AutonomixDPoS.sol",
  "abi": [
    {
      "inputs": [
        {
          "internalType": "address",
          "name": "_autoxTokenAddress",
          "type": "address"
        },
        {
          "internalType": "address",
          "name": "_treasuryAddress",
          "type": "address"
        }
      ],
      "stateMutability": "nonpayable",
      "type": "constructor"
    },
    {
      "inputs": [
        {
          "internalType": "address",
          "name": "owner",
          "type": "address"
        }
      ],
      "name": "OwnableInvalidOwner",
      "type": "error"
    },
    {
      "inputs": [
        {
          "internalType": "address",
          "name": "account",
          "type": "address"
        }
      ],
      "name": "OwnableUnauthorizedAccount",
      "type": "error"
    },
    {
      "anonymous": false,
      "inputs": [
        {
          "indexed": true,
          "internalType": "address",
          "name": "submitter",
          "type": "address"
        },
        {
          "indexed": true,
          "internalType": "bytes32",
          "name": "dataHash",
          "type": "bytes32"
        }
      ],
      "name": "DataSubmitted",
      "type": "event"
    },
    {
      "anonymous": false,
      "inputs": [
        {
          "indexed": true,
          "internalType": "bytes32",
          "name": "dataHash",
          "type": "bytes32"
        },
        {
          "indexed": false,
          "internalType": "bool",
          "name": "success",
          "type": "bool"
        }
      ],
      "name": "DataVerified",
      "type": "event"
    },
    {
      "anonymous": false,
      "inputs": [
        {
          "indexed": true,
          "internalType": "address",
          "name": "previousOwner",
          "type": "address"
        },
        {
          "indexed": true,
          "internalType": "address",
          "name": "newOwner",
          "type": "address"
        }
      ],
      "name": "OwnershipTransferred",
      "type": "event"
    },
    {
      "anonymous": false,
      "inputs": [
        {
          "indexed": false,
          "internalType": "uint256",
          "name": "totalReward",
          "type": "uint256"
        },
        {
          "indexed": false,
          "internalType": "uint256",
          "name": "validatorShare",
          "type": "uint256"
        },
        {
          "indexed": false,
          "internalType": "uint256",
          "name": "delegatorShare",
          "type": "uint256"
        },
        {
          "indexed": false,
          "internalType": "uint256",
          "name": "treasuryShare",
          "type": "uint256"
        }
      ],
      "name": "RewardsDistributed",
      "type": "event"
    },
    {
      "anonymous": false,
      "inputs": [
        {
          "indexed": true,
          "internalType": "address",
          "name": "delegator",
          "type": "address"
        },
        {
          "indexed": true,
          "internalType": "address",
          "name": "delegate",
          "type": "address"
        },
        {
          "indexed": false,
          "internalType": "uint256",
          "name": "amount",
          "type": "uint256"
        }
      ],
      "name": "Staked",
      "type": "event"
    },
    {
      "anonymous": false,
      "inputs": [
        {
          "indexed": true,
          "internalType": "address",
          "name": "delegator",
          "type": "address"
        },
        {
          "indexed": true,
          "internalType": "address",
          "name": "delegate",
          "type": "address"
        },
        {
          "indexed": false,
          "internalType": "uint256",
          "name": "amount",
          "type": "uint256"
        }
      ],
      "name": "Unstaked",
      "type": "event"
    },
    {
      "anonymous": false,
      "inputs": [
        {
          "indexed": true,
          "internalType": "address",
          "name": "validator",
          "type": "address"
        },
        {
          "indexed": false,
          "internalType": "uint256",
          "name": "penalty",
          "type": "uint256"
        }
      ],
      "name": "ValidatorSlashed",
      "type": "event"
    },
    {
      "anonymous": false,
      "inputs": [
        {
          "indexed": false,
          "internalType": "address[]",
          "name": "newValidators",
          "type": "address[]"
        }
      ],
      "name": "ValidatorsElected",
      "type": "event"
    },
    {
      "inputs": [],
      "name": "DELEGATOR_REWARD_PERCENTAGE",
      "outputs": [
        {
          "internalType": "uint256",
          "name": "",
          "type": "uint256"
        }
      ],
      "stateMutability": "view",
      "type": "function"
    },
    {
      "inputs": [],
      "name": "ELECTION_PERIOD_SECONDS",
      "outputs": [
        {
          "internalType": "uint256",
          "name": "",
          "type": "uint256"
        }
      ],
      "stateMutability": "view",
      "type": "function"
    },
    {
      "inputs": [],
      "name": "MAX_VALIDATORS",
      "outputs": [
        {
          "internalType": "uint256",
          "name": "",
          "type": "uint256"
        }
      ],
      "stateMutability": "view",
      "type": "function"
    },
    {
      "inputs": [],
      "name": "TREASURY_REWARD_PERCENTAGE",
      "outputs": [
        {
          "internalType": "uint256",
          "name": "",
          "type": "uint256"
        }
      ],
      "stateMutability": "view",
      "type": "function"
    },
    {
      "inputs": [],
      "name": "VALIDATOR_REWARD_PERCENTAGE",
      "outputs": [
        {
          "internalType": "uint256",
          "name": "",
          "type": "uint256"
        }
      ],
      "stateMutability": "view",
      "type": "function"
    },
    {
      "inputs": [
        {
          "internalType": "address",
          "name": "_validatorAddress",
          "type": "address"
        }
      ],
      "name": "addTestValidator",
      "outputs": [],
      "stateMutability": "nonpayable",
      "type": "function"
    },
    {
      "inputs": [],
      "name": "autoxToken",
      "outputs": [
        {
          "internalType": "contract AUTOXToken",
          "name": "",
          "type": "address"
        }
      ],
      "stateMutability": "view",
      "type": "function"
    },
    {
      "inputs": [
        {
          "internalType": "uint256",
          "name": "",
          "type": "uint256"
        }
      ],
      "name": "currentValidators",
      "outputs": [
        {
          "internalType": "address",
          "name": "",
          "type": "address"
        }
      ],
      "stateMutability": "view",
      "type": "function"
    },
    {
      "inputs": [
        {
          "internalType": "bytes32",
          "name": "",
          "type": "bytes32"
        }
      ],
      "name": "dataSubmissions",
      "outputs": [
        {
          "internalType": "address",
          "name": "submitter",
          "type": "address"
        },
        {
          "internalType": "bytes32",
          "name": "dataHash",
          "type": "bytes32"
        },
        {
          "internalType": "bool",
          "name": "verified",
          "type": "bool"
        }
      ],
      "stateMutability": "view",
      "type": "function"
    },
    {
      "inputs": [
        {
          "internalType": "address",
          "name": "",
          "type": "address"
        }
      ],
      "name": "delegates",
      "outputs": [
        {
          "internalType": "uint256",
          "name": "totalStaked",
          "type": "uint256"
        },
        {
          "internalType": "bool",
          "name": "isValidator",
          "type": "bool"
        },
        {
          "internalType": "uint256",
          "name": "totalRewards",
          "type": "uint256"
        }
      ],
      "stateMutability": "view",
      "type": "function"
    },
    {
      "inputs": [],
      "name": "distributeRewards",
      "outputs": [],
      "stateMutability": "nonpayable",
      "type": "function"
    },
    {
      "inputs": [],
      "name": "electValidators",
      "outputs": [],
      "stateMutability": "nonpayable",
      "type": "function"
    },
    {
      "inputs": [
        {
          "internalType": "address",
          "name": "_delegate",
          "type": "address"
        }
      ],
      "name": "getDelegateTotalStaked",
      "outputs": [
        {
          "internalType": "uint256",
          "name": "",
          "type": "uint256"
        }
      ],
      "stateMutability": "view",
      "type": "function"
    },
    {
      "inputs": [
        {
          "internalType": "address",
          "name": "_delegate",
          "type": "address"
        },
        {
          "internalType": "address",
          "name": "_delegator",
          "type": "address"
        }
      ],
      "name": "getDelegatorStake",
      "outputs": [
        {
          "internalType": "uint256",
          "name": "",
          "type": "uint256"
        }
      ],
      "stateMutability": "view",
      "type": "function"
    },
    {
      "inputs": [],
      "name": "getcurrentValidators",
      "outputs": [
        {
          "internalType": "address[]",
          "name": "",
          "type": "address[]"
        }
      ],
      "stateMutability": "view",
      "type": "function"
    },
    {
      "inputs": [
        {
          "internalType": "address",
          "name": "_addr",
          "type": "address"
        }
      ],
      "name": "isCurrentValidator",
      "outputs": [
        {
          "internalType": "bool",
          "name": "",
          "type": "bool"
        }
      ],
      "stateMutability": "view",
      "type": "function"
    },
    {
      "inputs": [],
      "name": "lastElectionTime",
      "outputs": [
        {
          "internalType": "uint256",
          "name": "",
          "type": "uint256"
        }
      ],
      "stateMutability": "view",
      "type": "function"
    },
    {
      "inputs": [],
      "name": "owner",
      "outputs": [
        {
          "internalType": "address",
          "name": "",
          "type": "address"
        }
      ],
      "stateMutability": "view",
      "type": "function"
    },
    {
      "inputs": [
        {
          "internalType": "uint256",
          "name": "",
          "type": "uint256"
        }
      ],
      "name": "registeredDelegates",
      "outputs": [
        {
          "internalType": "address",
          "name": "",
          "type": "address"
        }
      ],
      "stateMutability": "view",
      "type": "function"
    },
    {
      "inputs": [],
      "name": "renounceOwnership",
      "outputs": [],
      "stateMutability": "nonpayable",
      "type": "function"
    },
    {
      "inputs": [
        {
          "internalType": "address",
          "name": "",
          "type": "address"
        }
      ],
      "name": "reputation",
      "outputs": [
        {
          "internalType": "uint256",
          "name": "",
          "type": "uint256"
        }
      ],
      "stateMutability": "view",
      "type": "function"
    },
    {
      "inputs": [
        {
          "internalType": "address",
          "name": "_validator",
          "type": "address"
        },
        {
          "internalType": "uint256",
          "name": "_penalty",
          "type": "uint256"
        }
      ],
      "name": "slashValidator",
      "outputs": [],
      "stateMutability": "nonpayable",
      "type": "function"
    },
    {
      "inputs": [
        {
          "internalType": "address",
          "name": "_delegate",
          "type": "address"
        },
        {
          "internalType": "uint256",
          "name": "_amount",
          "type": "uint256"
        }
      ],
      "name": "stake",
      "outputs": [],
      "stateMutability": "nonpayable",
      "type": "function"
    },
    {
      "inputs": [
        {
          "internalType": "bytes32",
          "name": "_dataHash",
          "type": "bytes32"
        }
      ],
      "name": "submitData",
      "outputs": [],
      "stateMutability": "nonpayable",
      "type": "function"
    },
    {
      "inputs": [
        {
          "internalType": "address",
          "name": "newOwner",
          "type": "address"
        }
      ],
      "name": "transferOwnership",
      "outputs": [],
      "stateMutability": "nonpayable",
      "type": "function"
    },
    {
      "inputs": [],
      "name": "treasuryAddress",
      "outputs": [
        {
          "internalType": "address",
          "name": "",
          "type": "address"
        }
      ],
      "stateMutability": "view",
      "type": "function"
    },
    {
      "inputs": [
        {
          "internalType": "address",
          "name": "_delegate",
          "type": "address"
        },
        {
          "internalType": "uint256",
          "name": "_amount",
          "type": "uint256"
        }
      ],
      "name": "unstake",
      "outputs": [],
      "stateMutability": "nonpayable",
      "type": "function"
    },
    {
      "inputs": [
        {
          "internalType": "bytes32",
          "name": "_dataHash",
          "type": "bytes32"
        },
        {
          "internalType": "bool",
          "name": "_valid",
          "type": "bool"
        }
      ],
      "name": "verifyData",
      "outputs": [],
      "stateMutability": "nonpayable",
      "type": "function"
    }
  ],
  "bytecode": "0x60806040523480156200001157600080fd5b5060405162003c1038038062003c1083398181016040528101906200003791906200027e565b33600073ffffffffffffffffffffffffffffffffffffffff168173ffffffffffffffffffffffffffffffffffffffff1603620000ad5760006040517f1e4fbdf7000000000000000000000000000000000000000000000000000000008152600401620000a49190620002d6565b60405180910390fd5b620000be816200015060201b60201c565b5081600160006101000a81548173ffffffffffffffffffffffffffffffffffffffff021916908373ffffffffffffffffffffffffffffffffffffffff16021790555080600660006101000a81548173ffffffffffffffffffffffffffffffffffffffff021916908373ffffffffffffffffffffffffffffffffffffffff160217905550426005819055505050620002f3565b60008060009054906101000a900473ffffffffffffffffffffffffffffffffffffffff169050816000806101000a81548173ffffffffffffffffffffffffffffffffffffffff021916908373ffffffffffffffffffffffffffffffffffffffff1602179055508173ffffffffffffffffffffffffffffffffffffffff168173ffffffffffffffffffffffffffffffffffffffff167f8be0079c531659141344cd1fd0a4f28419497f9722a3daafe3b4186f6b6457e060405160405180910390a35050565b600080fd5b600073ffffffffffffffffffffffffffffffffffffffff82169050919050565b6000620002468262000219565b9050919050565b620002588162000239565b81146200026457600080fd5b50565b60008151905062000278816200024d565b92915050565b6000806040838503121562000298576200029762000214565b5b6000620002a88582860162000267565b9250506020620002bb8582860162000267565b9150509250929050565b620002d08162000239565b82525050565b6000602082019050620002ed6000830184620002c5565b92915050565b61390d80620003036000396000f3fe608060405234801561001057600080fd5b50600436106101c45760003560e01c80638da5cb5b116100f9578063bb985d7d11610097578063cbafc40f11610071578063cbafc40f146104e7578063cd928de914610505578063d1a89fde14610523578063f2fde38b1461053f576101c4565b8063bb985d7d14610491578063c2a672e0146104ad578063c5f956af146104c9576101c4565b8063adc9772e116100d3578063adc9772e1461040b578063b28b494614610427578063b3bdcb9814610445578063b9f7945114610461576101c4565b80638da5cb5b1461038d578063900eb5a8146103ab5780639d0b5e58146103db576101c4565b8063587cde1e11610166578063714897df11610140578063714897df14610303578063715018a6146103215780637e80b0951461032b57806382c98de91461035b576101c4565b8063587cde1e146102a957806363b800f2146102db5780636f4a2cd0146102f9576101c4565b80633e4208ef116101a25780633e4208ef1461020f5780635028e2e11461022b578063539964c61461025b57806355614fcc14610279576101c4565b8063091c96ee146101c95780630b64f1ff146101e75780630eb1b586146101f1575b600080fd5b6101d161055b565b6040516101de9190612a2e565b60405180910390f35b6101ef6105e9565b005b6101f9610b37565b6040516102069190612a69565b60405180910390f35b61022960048036038101906102249190612ae1565b610b3d565b005b61024560048036038101906102409190612b21565b610e15565b6040516102529190612a69565b60405180910390f35b610263610e9f565b6040516102709190612a69565b60405180910390f35b610293600480360381019061028e9190612b61565b610ea4565b6040516102a09190612ba9565b60405180910390f35b6102c360048036038101906102be9190612b61565b610f52565b6040516102d293929190612bc4565b60405180910390f35b6102e3610f89565b6040516102f09190612c5a565b60405180910390f35b610301610faf565b005b61030b611523565b6040516103189190612a69565b60405180910390f35b610329611528565b005b61034560048036038101906103409190612b61565b61153c565b6040516103529190612a69565b60405180910390f35b61037560048036038101906103709190612cab565b611588565b60405161038493929190612cf6565b60405180910390f35b6103956115df565b6040516103a29190612d2d565b60405180910390f35b6103c560048036038101906103c09190612d48565b611608565b6040516103d29190612d2d565b60405180910390f35b6103f560048036038101906103f09190612d48565b611647565b6040516104029190612d2d565b60405180910390f35b61042560048036038101906104209190612ae1565b611686565b005b61042f611a3c565b60405161043c9190612a69565b60405180910390f35b61045f600480360381019061045a9190612da1565b611a43565b005b61047b60048036038101906104769190612b61565b611cc0565b6040516104889190612a69565b60405180910390f35b6104ab60048036038101906104a69190612cab565b611cd8565b005b6104c760048036038101906104c29190612ae1565b611e1f565b005b6104d1612333565b6040516104de9190612d2d565b60405180910390f35b6104ef612359565b6040516104fc9190612a69565b60405180910390f35b61050d61235e565b60405161051a9190612a69565b60405180910390f35b61053d60048036038101906105389190612b61565b612363565b005b61055960048036038101906105549190612b61565b6124de565b005b606060048054806020026020016040519081016040528092919081815260200182805480156105df57602002820191906000526020600020905b8160009054906101000a900473ffffffffffffffffffffffffffffffffffffffff1673ffffffffffffffffffffffffffffffffffffffff1681526020019060010190808311610595575b5050505050905090565b6105f1612564565b62093a806005546106029190612e10565b421015610644576040517f08c379a000000000000000000000000000000000000000000000000000000000815260040161063b90612ea1565b60405180910390fd5b60005b600480549050811015610700576000600260006004848154811061066e5761066d612ec1565b5b9060005260206000200160009054906101000a900473ffffffffffffffffffffffffffffffffffffffff1673ffffffffffffffffffffffffffffffffffffffff1673ffffffffffffffffffffffffffffffffffffffff16815260200190815260200160002060020160006101000a81548160ff02191690831515021790555080806106f890612ef0565b915050610647565b50600067ffffffffffffffff81111561071c5761071b612f38565b5b60405190808252806020026020018201604052801561074a5781602001602082028036833780820191505090505b5060049080519060200190610760929190612897565b50600060038054806020026020016040519081016040528092919081815260200182805480156107e557602002820191906000526020600020905b8160009054906101000a900473ffffffffffffffffffffffffffffffffffffffff1673ffffffffffffffffffffffffffffffffffffffff168152602001906001019080831161079b575b5050505050905060005b81518110156109d15760006001826108079190612e10565b90505b82518110156109bd576002600084838151811061082a57610829612ec1565b5b602002602001015173ffffffffffffffffffffffffffffffffffffffff1673ffffffffffffffffffffffffffffffffffffffff168152602001908152602001600020600001546002600085858151811061088757610886612ec1565b5b602002602001015173ffffffffffffffffffffffffffffffffffffffff1673ffffffffffffffffffffffffffffffffffffffff1681526020019081526020016000206000015410156109aa5760008383815181106108e8576108e7612ec1565b5b6020026020010151905083828151811061090557610904612ec1565b5b60200260200101518484815181106109205761091f612ec1565b5b602002602001019073ffffffffffffffffffffffffffffffffffffffff16908173ffffffffffffffffffffffffffffffffffffffff16815250508084838151811061096e5761096d612ec1565b5b602002602001019073ffffffffffffffffffffffffffffffffffffffff16908173ffffffffffffffffffffffffffffffffffffffff1681525050505b80806109b590612ef0565b91505061080a565b5080806109c990612ef0565b9150506107ef565b5060005b8151811080156109ea57506015600480549050105b15610af4576004828281518110610a0457610a03612ec1565b5b60200260200101519080600181540180825580915050600190039060005260206000200160009091909190916101000a81548173ffffffffffffffffffffffffffffffffffffffff021916908373ffffffffffffffffffffffffffffffffffffffff160217905550600160026000848481518110610a8557610a84612ec1565b5b602002602001015173ffffffffffffffffffffffffffffffffffffffff1673ffffffffffffffffffffffffffffffffffffffff16815260200190815260200160002060020160006101000a81548160ff0219169083151502179055508080610aec90612ef0565b9150506109d5565b50426005819055507f9f22bcf9ed8374df04282369326796a9739365b05bded9ea71a762beece470ff6004604051610b2c9190613053565b60405180910390a150565b60055481565b610b45612564565b80600260008473ffffffffffffffffffffffffffffffffffffffff1673ffffffffffffffffffffffffffffffffffffffff168152602001908152602001600020600001541015610bca576040517f08c379a0000000000000000000000000000000000000000000000000000000008152600401610bc1906130c1565b60405180910390fd5b80600260008473ffffffffffffffffffffffffffffffffffffffff1673ffffffffffffffffffffffffffffffffffffffff1681526020019081526020016000206000016000828254610c1c91906130e1565b92505081905550600160009054906101000a900473ffffffffffffffffffffffffffffffffffffffff1673ffffffffffffffffffffffffffffffffffffffff1663a9059cbb600660009054906101000a900473ffffffffffffffffffffffffffffffffffffffff16836040518363ffffffff1660e01b8152600401610ca2929190613115565b6020604051808303816000875af1158015610cc1573d6000803e3d6000fd5b505050506040513d601f19601f82011682018060405250810190610ce59190613153565b610d24576040517f08c379a0000000000000000000000000000000000000000000000000000000008152600401610d1b906131cc565b60405180910390fd5b6032600860008473ffffffffffffffffffffffffffffffffffffffff1673ffffffffffffffffffffffffffffffffffffffff1681526020019081526020016000205410610dc3576032600860008473ffffffffffffffffffffffffffffffffffffffff1673ffffffffffffffffffffffffffffffffffffffff1681526020019081526020016000206000828254610dbb91906130e1565b925050819055505b8173ffffffffffffffffffffffffffffffffffffffff167f17bddadfd7ec8898c3b9eadd0cf5ae77ba8d5df3a50e96ab86ec2dd711aa8fbb82604051610e099190612a69565b60405180910390a25050565b6000600260008473ffffffffffffffffffffffffffffffffffffffff1673ffffffffffffffffffffffffffffffffffffffff16815260200190815260200160002060010160008373ffffffffffffffffffffffffffffffffffffffff1673ffffffffffffffffffffffffffffffffffffffff16815260200190815260200160002054905092915050565b601481565b600080600090505b600480549050811015610f47578273ffffffffffffffffffffffffffffffffffffffff1660048281548110610ee457610ee3612ec1565b5b9060005260206000200160009054906101000a900473ffffffffffffffffffffffffffffffffffffffff1673ffffffffffffffffffffffffffffffffffffffff1603610f34576001915050610f4d565b8080610f3f90612ef0565b915050610eac565b50600090505b919050565b60026020528060005260406000206000915090508060000154908060020160009054906101000a900460ff16908060030154905083565b600160009054906101000a900473ffffffffffffffffffffffffffffffffffffffff1681565b6000600a600160009054906101000a900473ffffffffffffffffffffffffffffffffffffffff1673ffffffffffffffffffffffffffffffffffffffff166370a08231306040518263ffffffff1660e01b815260040161100e9190612d2d565b602060405180830381865afa15801561102b573d6000803e3d6000fd5b505050506040513d601f19601f8201168201806040525081019061104f9190613201565b611059919061325d565b90506000811161109e576040517f08c379a0000000000000000000000000000000000000000000000000000000008152600401611095906132da565b60405180910390fd5b600060646046836110af91906132fa565b6110b9919061325d565b9050600060646014846110cc91906132fa565b6110d6919061325d565b905060006064600a856110e991906132fa565b6110f3919061325d565b9050600160009054906101000a900473ffffffffffffffffffffffffffffffffffffffff1673ffffffffffffffffffffffffffffffffffffffff1663a9059cbb600660009054906101000a900473ffffffffffffffffffffffffffffffffffffffff16836040518363ffffffff1660e01b8152600401611174929190613115565b6020604051808303816000875af1158015611193573d6000803e3d6000fd5b505050506040513d601f19601f820116820180604052508101906111b79190613153565b6111f6576040517f08c379a00000000000000000000000000000000000000000000000000000000081526004016111ed90613388565b60405180910390fd5b6000805b6004805490508110156112a857600260006004838154811061121f5761121e612ec1565b5b9060005260206000200160009054906101000a900473ffffffffffffffffffffffffffffffffffffffff1673ffffffffffffffffffffffffffffffffffffffff1673ffffffffffffffffffffffffffffffffffffffff16815260200190815260200160002060000154826112939190612e10565b915080806112a090612ef0565b9150506111fa565b5060005b6004805490508110156114de576000600482815481106112cf576112ce612ec1565b5b9060005260206000200160009054906101000a900473ffffffffffffffffffffffffffffffffffffffff1690506000600260008373ffffffffffffffffffffffffffffffffffffffff1673ffffffffffffffffffffffffffffffffffffffff168152602001908152602001600020600001549050600084828961135291906132fa565b61135c919061325d565b9050600085838961136d91906132fa565b611377919061325d565b9050600160009054906101000a900473ffffffffffffffffffffffffffffffffffffffff1673ffffffffffffffffffffffffffffffffffffffff1663a9059cbb8583856113c49190612e10565b6040518363ffffffff1660e01b81526004016113e1929190613115565b6020604051808303816000875af1158015611400573d6000803e3d6000fd5b505050506040513d601f19601f820116820180604052508101906114249190613153565b611463576040517f08c379a000000000000000000000000000000000000000000000000000000000815260040161145a906133f4565b60405180910390fd5b808261146f9190612e10565b600260008673ffffffffffffffffffffffffffffffffffffffff1673ffffffffffffffffffffffffffffffffffffffff16815260200190815260200160002060030160008282546114c09190612e10565b925050819055505050505080806114d690612ef0565b9150506112ac565b507ff05b0b8458b89503ca56b18429a7b1ecd2f7f2d6d5eba936da3791b6b078bc78858585856040516115149493929190613414565b60405180910390a15050505050565b601581565b611530612564565b61153a60006125eb565b565b6000600260008373ffffffffffffffffffffffffffffffffffffffff1673ffffffffffffffffffffffffffffffffffffffff168152602001908152602001600020600001549050919050565b60076020528060005260406000206000915090508060000160009054906101000a900473ffffffffffffffffffffffffffffffffffffffff16908060010154908060020160009054906101000a900460ff16905083565b60008060009054906101000a900473ffffffffffffffffffffffffffffffffffffffff16905090565b6004818154811061161857600080fd5b906000526020600020016000915054906101000a900473ffffffffffffffffffffffffffffffffffffffff1681565b6003818154811061165757600080fd5b906000526020600020016000915054906101000a900473ffffffffffffffffffffffffffffffffffffffff1681565b600081116116c9576040517f08c379a00000000000000000000000000000000000000000000000000000000081526004016116c0906134cb565b60405180910390fd5b600160009054906101000a900473ffffffffffffffffffffffffffffffffffffffff1673ffffffffffffffffffffffffffffffffffffffff166323b872dd3330846040518463ffffffff1660e01b8152600401611728939291906134eb565b6020604051808303816000875af1158015611747573d6000803e3d6000fd5b505050506040513d601f19601f8201168201806040525081019061176b9190613153565b6117aa576040517f08c379a00000000000000000000000000000000000000000000000000000000081526004016117a19061356e565b60405180910390fd5b6000600260008473ffffffffffffffffffffffffffffffffffffffff1673ffffffffffffffffffffffffffffffffffffffff1681526020019081526020016000206000015414801561187b57506000600260008473ffffffffffffffffffffffffffffffffffffffff1673ffffffffffffffffffffffffffffffffffffffff16815260200190815260200160002060010160003373ffffffffffffffffffffffffffffffffffffffff1673ffffffffffffffffffffffffffffffffffffffff16815260200190815260200160002054145b156118e4576003829080600181540180825580915050600190039060005260206000200160009091909190916101000a81548173ffffffffffffffffffffffffffffffffffffffff021916908373ffffffffffffffffffffffffffffffffffffffff1602179055505b80600260008473ffffffffffffffffffffffffffffffffffffffff1673ffffffffffffffffffffffffffffffffffffffff16815260200190815260200160002060000160008282546119369190612e10565b9250508190555080600260008473ffffffffffffffffffffffffffffffffffffffff1673ffffffffffffffffffffffffffffffffffffffff16815260200190815260200160002060010160003373ffffffffffffffffffffffffffffffffffffffff1673ffffffffffffffffffffffffffffffffffffffff16815260200190815260200160002060008282546119cc9190612e10565b925050819055508173ffffffffffffffffffffffffffffffffffffffff163373ffffffffffffffffffffffffffffffffffffffff167f5dac0c1b1112564a045ba943c9d50270893e8e826c49be8e7073adc713ab7bd783604051611a309190612a69565b60405180910390a35050565b62093a8081565b600260003373ffffffffffffffffffffffffffffffffffffffff1673ffffffffffffffffffffffffffffffffffffffff16815260200190815260200160002060020160009054906101000a900460ff16611ad2576040517f08c379a0000000000000000000000000000000000000000000000000000000008152600401611ac9906135da565b60405180910390fd5b600073ffffffffffffffffffffffffffffffffffffffff166007600084815260200190815260200160002060000160009054906101000a900473ffffffffffffffffffffffffffffffffffffffff1673ffffffffffffffffffffffffffffffffffffffff1603611b77576040517f08c379a0000000000000000000000000000000000000000000000000000000008152600401611b6e90613646565b60405180910390fd5b6007600083815260200190815260200160002060020160009054906101000a900460ff1615611bdb576040517f08c379a0000000000000000000000000000000000000000000000000000000008152600401611bd2906136b2565b60405180910390fd5b60016007600084815260200190815260200160002060020160006101000a81548160ff0219169083151502179055508015611c2057611c1b3360016126af565b611c84565b611c2b3360006126af565b611c8333600a600260003373ffffffffffffffffffffffffffffffffffffffff1673ffffffffffffffffffffffffffffffffffffffff16815260200190815260200160002060000154611c7e919061325d565b610b3d565b5b817fee7761497838e6fe8aa3859ef53f7e3842149851e8064fc426810583049304a282604051611cb49190612ba9565b60405180910390a25050565b60086020528060005260406000206000915090505481565b6000801b8103611d1d576040517f08c379a0000000000000000000000000000000000000000000000000000000008152600401611d149061371e565b60405180910390fd5b60405180606001604052803373ffffffffffffffffffffffffffffffffffffffff168152602001828152602001600015158152506007600083815260200190815260200160002060008201518160000160006101000a81548173ffffffffffffffffffffffffffffffffffffffff021916908373ffffffffffffffffffffffffffffffffffffffff1602179055506020820151816001015560408201518160020160006101000a81548160ff021916908315150217905550905050803373ffffffffffffffffffffffffffffffffffffffff167f138e8be20fb477316c82e05a0e2a8048c6e71923256d9e2393c5e8c3d8d8eacd60405160405180910390a350565b60008111611e62576040517f08c379a0000000000000000000000000000000000000000000000000000000008152600401611e59906137b0565b60405180910390fd5b80600260008473ffffffffffffffffffffffffffffffffffffffff1673ffffffffffffffffffffffffffffffffffffffff16815260200190815260200160002060010160003373ffffffffffffffffffffffffffffffffffffffff1673ffffffffffffffffffffffffffffffffffffffff168152602001908152602001600020541015611f24576040517f08c379a0000000000000000000000000000000000000000000000000000000008152600401611f1b9061381c565b60405180910390fd5b80600260008473ffffffffffffffffffffffffffffffffffffffff1673ffffffffffffffffffffffffffffffffffffffff1681526020019081526020016000206000016000828254611f7691906130e1565b9250508190555080600260008473ffffffffffffffffffffffffffffffffffffffff1673ffffffffffffffffffffffffffffffffffffffff16815260200190815260200160002060010160003373ffffffffffffffffffffffffffffffffffffffff1673ffffffffffffffffffffffffffffffffffffffff168152602001908152602001600020600082825461200c91906130e1565b92505081905550600160009054906101000a900473ffffffffffffffffffffffffffffffffffffffff1673ffffffffffffffffffffffffffffffffffffffff1663a9059cbb33836040518363ffffffff1660e01b8152600401612070929190613115565b6020604051808303816000875af115801561208f573d6000803e3d6000fd5b505050506040513d601f19601f820116820180604052508101906120b39190613153565b6120f2576040517f08c379a00000000000000000000000000000000000000000000000000000000081526004016120e99061356e565b60405180910390fd5b8173ffffffffffffffffffffffffffffffffffffffff163373ffffffffffffffffffffffffffffffffffffffff167fd8654fcc8cf5b36d30b3f5e4688fc78118e6d68de60b9994e09902268b57c3e38360405161214f9190612a69565b60405180910390a36000600260008473ffffffffffffffffffffffffffffffffffffffff1673ffffffffffffffffffffffffffffffffffffffff168152602001908152602001600020600001540361232f5760005b60038054905081101561232d578273ffffffffffffffffffffffffffffffffffffffff16600382815481106121dc576121db612ec1565b5b9060005260206000200160009054906101000a900473ffffffffffffffffffffffffffffffffffffffff1673ffffffffffffffffffffffffffffffffffffffff160361231a576003600160038054905061223691906130e1565b8154811061224757612246612ec1565b5b9060005260206000200160009054906101000a900473ffffffffffffffffffffffffffffffffffffffff166003828154811061228657612285612ec1565b5b9060005260206000200160006101000a81548173ffffffffffffffffffffffffffffffffffffffff021916908373ffffffffffffffffffffffffffffffffffffffff16021790555060038054806122e0576122df61383c565b5b6001900381819060005260206000200160006101000a81549073ffffffffffffffffffffffffffffffffffffffff0219169055905561232d565b808061232590612ef0565b9150506121a4565b505b5050565b600660009054906101000a900473ffffffffffffffffffffffffffffffffffffffff1681565b600a81565b604681565b600073ffffffffffffffffffffffffffffffffffffffff168173ffffffffffffffffffffffffffffffffffffffff16036123d2576040517f08c379a00000000000000000000000000000000000000000000000000000000081526004016123c9906138b7565b60405180910390fd5b6000600260008373ffffffffffffffffffffffffffffffffffffffff1673ffffffffffffffffffffffffffffffffffffffff1681526020019081526020016000206000015403612480576003819080600181540180825580915050600190039060005260206000200160009091909190916101000a81548173ffffffffffffffffffffffffffffffffffffffff021916908373ffffffffffffffffffffffffffffffffffffffff1602179055505b6001600260008373ffffffffffffffffffffffffffffffffffffffff1673ffffffffffffffffffffffffffffffffffffffff16815260200190815260200160002060020160006101000a81548160ff02191690831515021790555050565b6124e6612564565b600073ffffffffffffffffffffffffffffffffffffffff168173ffffffffffffffffffffffffffffffffffffffff16036125585760006040517f1e4fbdf700000000000000000000000000000000000000000000000000000000815260040161254f9190612d2d565b60405180910390fd5b612561816125eb565b50565b61256c61288f565b73ffffffffffffffffffffffffffffffffffffffff1661258a6115df565b73ffffffffffffffffffffffffffffffffffffffff16146125e9576125ad61288f565b6040517f118cdaa70000000000000000000000000000000000000000000000000000000081526004016125e09190612d2d565b60405180910390fd5b565b60008060009054906101000a900473ffffffffffffffffffffffffffffffffffffffff169050816000806101000a81548173ffffffffffffffffffffffffffffffffffffffff021916908373ffffffffffffffffffffffffffffffffffffffff1602179055508173ffffffffffffffffffffffffffffffffffffffff168173ffffffffffffffffffffffffffffffffffffffff167f8be0079c531659141344cd1fd0a4f28419497f9722a3daafe3b4186f6b6457e060405160405180910390a35050565b80156127a157600a600860008473ffffffffffffffffffffffffffffffffffffffff1673ffffffffffffffffffffffffffffffffffffffff16815260200190815260200160002060008282546127059190612e10565b925050819055506103e8600860008473ffffffffffffffffffffffffffffffffffffffff1673ffffffffffffffffffffffffffffffffffffffff16815260200190815260200160002054111561279c576103e8600860008473ffffffffffffffffffffffffffffffffffffffff1673ffffffffffffffffffffffffffffffffffffffff168152602001908152602001600020819055505b61288b565b6014600860008473ffffffffffffffffffffffffffffffffffffffff1673ffffffffffffffffffffffffffffffffffffffff1681526020019081526020016000205410612844576014600860008473ffffffffffffffffffffffffffffffffffffffff1673ffffffffffffffffffffffffffffffffffffffff168152602001908152602001600020600082825461283891906130e1565b9250508190555061288a565b6000600860008473ffffffffffffffffffffffffffffffffffffffff1673ffffffffffffffffffffffffffffffffffffffff168152602001908152602001600020819055505b5b5050565b600033905090565b828054828255906000526020600020908101928215612910579160200282015b8281111561290f5782518260006101000a81548173ffffffffffffffffffffffffffffffffffffffff021916908373ffffffffffffffffffffffffffffffffffffffff160217905550916020019190600101906128b7565b5b50905061291d9190612921565b5090565b5b8082111561293a576000816000905550600101612922565b5090565b600081519050919050565b600082825260208201905092915050565b6000819050602082019050919050565b600073ffffffffffffffffffffffffffffffffffffffff82169050919050565b60006129958261296a565b9050919050565b6129a58161298a565b82525050565b60006129b7838361299c565b60208301905092915050565b6000602082019050919050565b60006129db8261293e565b6129e58185612949565b93506129f08361295a565b8060005b83811015612a21578151612a0888826129ab565b9750612a13836129c3565b9250506001810190506129f4565b5085935050505092915050565b60006020820190508181036000830152612a4881846129d0565b905092915050565b6000819050919050565b612a6381612a50565b82525050565b6000602082019050612a7e6000830184612a5a565b92915050565b600080fd5b612a928161298a565b8114612a9d57600080fd5b50565b600081359050612aaf81612a89565b92915050565b612abe81612a50565b8114612ac957600080fd5b50565b600081359050612adb81612ab5565b92915050565b60008060408385031215612af857612af7612a84565b5b6000612b0685828601612aa0565b9250506020612b1785828601612acc565b9150509250929050565b60008060408385031215612b3857612b37612a84565b5b6000612b4685828601612aa0565b9250506020612b5785828601612aa0565b9150509250929050565b600060208284031215612b7757612b76612a84565b5b6000612b8584828501612aa0565b91505092915050565b60008115159050919050565b612ba381612b8e565b82525050565b6000602082019050612bbe6000830184612b9a565b92915050565b6000606082019050612bd96000830186612a5a565b612be66020830185612b9a565b612bf36040830184612a5a565b949350505050565b6000819050919050565b6000612c20612c1b612c168461296a565b612bfb565b61296a565b9050919050565b6000612c3282612c05565b9050919050565b6000612c4482612c27565b9050919050565b612c5481612c39565b82525050565b6000602082019050612c6f6000830184612c4b565b92915050565b6000819050919050565b612c8881612c75565b8114612c9357600080fd5b50565b600081359050612ca581612c7f565b92915050565b600060208284031215612cc157612cc0612a84565b5b6000612ccf84828501612c96565b91505092915050565b612ce18161298a565b82525050565b612cf081612c75565b82525050565b6000606082019050612d0b6000830186612cd8565b612d186020830185612ce7565b612d256040830184612b9a565b949350505050565b6000602082019050612d426000830184612cd8565b92915050565b600060208284031215612d5e57612d5d612a84565b5b6000612d6c84828501612acc565b91505092915050565b612d7e81612b8e565b8114612d8957600080fd5b50565b600081359050612d9b81612d75565b92915050565b60008060408385031215612db857612db7612a84565b5b6000612dc685828601612c96565b9250506020612dd785828601612d8c565b9150509250929050565b7f4e487b7100000000000000000000000000000000000000000000000000000000600052601160045260246000fd5b6000612e1b82612a50565b9150612e2683612a50565b9250828201905080821115612e3e57612e3d612de1565b5b92915050565b600082825260208201905092915050565b7f456c656374696f6e20706572696f64206e6f74206f7665722079657400000000600082015250565b6000612e8b601c83612e44565b9150612e9682612e55565b602082019050919050565b60006020820190508181036000830152612eba81612e7e565b9050919050565b7f4e487b7100000000000000000000000000000000000000000000000000000000600052603260045260246000fd5b6000612efb82612a50565b91507fffffffffffffffffffffffffffffffffffffffffffffffffffffffffffffffff8203612f2d57612f2c612de1565b5b600182019050919050565b7f4e487b7100000000000000000000000000000000000000000000000000000000600052604160045260246000fd5b600081549050919050565b60008190508160005260206000209050919050565b60008160001c9050919050565b600073ffffffffffffffffffffffffffffffffffffffff82169050919050565b6000612fc7612fc283612f87565b612f94565b9050919050565b6000612fda8254612fb4565b9050919050565b6000600182019050919050565b6000612ff982612f67565b6130038185612949565b935061300e83612f72565b8060005b838110156130465761302382612fce565b61302d88826129ab565b975061303883612fe1565b925050600181019050613012565b5085935050505092915050565b6000602082019050818103600083015261306d8184612fee565b905092915050565b7f496e73756666696369656e74207374616b6520746f20736c6173680000000000600082015250565b60006130ab601b83612e44565b91506130b682613075565b602082019050919050565b600060208201905081810360008301526130da8161309e565b9050919050565b60006130ec82612a50565b91506130f783612a50565b925082820390508181111561310f5761310e612de1565b5b92915050565b600060408201905061312a6000830185612cd8565b6131376020830184612a5a565b9392505050565b60008151905061314d81612d75565b92915050565b60006020828403121561316957613168612a84565b5b60006131778482850161313e565b91505092915050565b7f536c617368207472616e73666572206661696c65640000000000000000000000600082015250565b60006131b6601583612e44565b91506131c182613180565b602082019050919050565b600060208201905081810360008301526131e5816131a9565b9050919050565b6000815190506131fb81612ab5565b92915050565b60006020828403121561321757613216612a84565b5b6000613225848285016131ec565b91505092915050565b7f4e487b7100000000000000000000000000000000000000000000000000000000600052601260045260246000fd5b600061326882612a50565b915061327383612a50565b9250826132835761328261322e565b5b828204905092915050565b7f4e6f207265776172647320746f20646973747269627574650000000000000000600082015250565b60006132c4601883612e44565b91506132cf8261328e565b602082019050919050565b600060208201905081810360008301526132f3816132b7565b9050919050565b600061330582612a50565b915061331083612a50565b925082820261331e81612a50565b9150828204841483151761333557613334612de1565b5b5092915050565b7f5472656173757279207472616e73666572206661696c65640000000000000000600082015250565b6000613372601883612e44565b915061337d8261333c565b602082019050919050565b600060208201905081810360008301526133a181613365565b9050919050565b7f526577617264207472616e73666572206661696c656400000000000000000000600082015250565b60006133de601683612e44565b91506133e9826133a8565b602082019050919050565b6000602082019050818103600083015261340d816133d1565b9050919050565b60006080820190506134296000830187612a5a565b6134366020830186612a5a565b6134436040830185612a5a565b6134506060830184612a5a565b95945050505050565b7f5374616b6520616d6f756e74206d75737420626520677265617465722074686160008201527f6e207a65726f0000000000000000000000000000000000000000000000000000602082015250565b60006134b5602683612e44565b91506134c082613459565b604082019050919050565b600060208201905081810360008301526134e4816134a8565b9050919050565b60006060820190506135006000830186612cd8565b61350d6020830185612cd8565b61351a6040830184612a5a565b949350505050565b7f546f6b656e207472616e73666572206661696c65640000000000000000000000600082015250565b6000613558601583612e44565b915061356382613522565b602082019050919050565b600060208201905081810360008301526135878161354b565b9050919050565b7f4f6e6c792076616c696461746f722063616e2076657269667900000000000000600082015250565b60006135c4601983612e44565b91506135cf8261358e565b602082019050919050565b600060208201905081810360008301526135f3816135b7565b9050919050565b7f44617461206e6f7420666f756e64000000000000000000000000000000000000600082015250565b6000613630600e83612e44565b915061363b826135fa565b602082019050919050565b6000602082019050818103600083015261365f81613623565b9050919050565b7f416c726561647920766572696669656400000000000000000000000000000000600082015250565b600061369c601083612e44565b91506136a782613666565b602082019050919050565b600060208201905081810360008301526136cb8161368f565b9050919050565b7f496e76616c696420646174612068617368000000000000000000000000000000600082015250565b6000613708601183612e44565b9150613713826136d2565b602082019050919050565b60006020820190508181036000830152613737816136fb565b9050919050565b7f556e7374616b6520616d6f756e74206d7573742062652067726561746572207460008201527f68616e207a65726f000000000000000000000000000000000000000000000000602082015250565b600061379a602883612e44565b91506137a58261373e565b604082019050919050565b600060208201905081810360008301526137c98161378d565b9050919050565b7f496e73756666696369656e74207374616b656420616d6f756e74000000000000600082015250565b6000613806601a83612e44565b9150613811826137d0565b602082019050919050565b60006020820190508181036000830152613835816137f9565b9050919050565b7f4e487b7100000000000000000000000000000000000000000000000000000000600052603160045260246000fd5b7f496e76616c696420616464726573730000000000000000000000000000000000600082015250565b60006138a1600f83612e44565b91506138ac8261386b565b602082019050919050565b600060208201905081810360008301526138d081613894565b905091905056fea26469706673582212201ca14b2fd39ca3685e259d4d39f851205bde109472d36530944a5527b1eacff064736f6c63430008140033",
  "linkReferences": {},
  "deployedLinkReferences": {}
}